{
  "address": "0x0e4Da0cf4dd7a3Cb7aA6Bc9882C6C3A7cEeb35d7",
  "abi": [
    {
      "inputs": [
        {
          "internalType": "address",
          "name": "governance_",
          "type": "address"
        },
        {
          "internalType": "address",
          "name": "vestingContractTarget_",
          "type": "address"
        }
      ],
      "stateMutability": "nonpayable",
      "type": "constructor"
    },
    {
      "anonymous": false,
      "inputs": [
        {
          "indexed": true,
          "internalType": "address",
          "name": "owner",
          "type": "address"
        },
        {
          "indexed": true,
          "internalType": "address",
          "name": "spender",
          "type": "address"
        },
        {
          "indexed": false,
          "internalType": "uint256",
          "name": "value",
          "type": "uint256"
        }
      ],
      "name": "Approval",
      "type": "event"
    },
    {
      "anonymous": false,
      "inputs": [
        {
          "indexed": true,
          "internalType": "address",
          "name": "target",
          "type": "address"
        }
      ],
      "name": "Disallowed",
      "type": "event"
    },
    {
      "anonymous": false,
      "inputs": [
        {
          "indexed": true,
          "internalType": "address",
          "name": "governance",
          "type": "address"
        }
      ],
      "name": "SetGovernance",
      "type": "event"
    },
    {
      "anonymous": false,
      "inputs": [
        {
          "indexed": true,
          "internalType": "address",
          "name": "from",
          "type": "address"
        },
        {
          "indexed": true,
          "internalType": "address",
          "name": "to",
          "type": "address"
        },
        {
          "indexed": false,
          "internalType": "uint256",
          "name": "value",
          "type": "uint256"
        }
      ],
      "name": "Transfer",
      "type": "event"
    },
    {
      "anonymous": false,
      "inputs": [
        {
          "indexed": true,
          "internalType": "address",
          "name": "beneficiary",
          "type": "address"
        },
        {
          "indexed": false,
          "internalType": "address",
          "name": "vestingContract",
          "type": "address"
        }
      ],
      "name": "VestingContractDeployed",
      "type": "event"
    },
    {
      "inputs": [],
      "name": "MAX_SUPPLY",
      "outputs": [
        {
          "internalType": "uint256",
          "name": "",
          "type": "uint256"
        }
      ],
      "stateMutability": "view",
      "type": "function"
    },
    {
      "inputs": [],
      "name": "acceptGovernance",
      "outputs": [],
      "stateMutability": "nonpayable",
      "type": "function"
    },
    {
      "inputs": [
        {
          "internalType": "address",
          "name": "owner",
          "type": "address"
        },
        {
          "internalType": "address",
          "name": "spender",
          "type": "address"
        }
      ],
      "name": "allowance",
      "outputs": [
        {
          "internalType": "uint256",
          "name": "",
          "type": "uint256"
        }
      ],
      "stateMutability": "view",
      "type": "function"
    },
    {
      "inputs": [
        {
          "internalType": "address",
          "name": "spender",
          "type": "address"
        },
        {
          "internalType": "uint256",
          "name": "amount",
          "type": "uint256"
        }
      ],
      "name": "approve",
      "outputs": [
        {
          "internalType": "bool",
          "name": "",
          "type": "bool"
        }
      ],
      "stateMutability": "nonpayable",
      "type": "function"
    },
    {
      "inputs": [
        {
          "internalType": "address",
          "name": "account",
          "type": "address"
        }
      ],
      "name": "balanceOf",
      "outputs": [
        {
          "internalType": "uint256",
          "name": "",
          "type": "uint256"
        }
      ],
      "stateMutability": "view",
      "type": "function"
    },
    {
      "inputs": [
        {
          "internalType": "address",
          "name": "newGovernance",
          "type": "address"
        }
      ],
      "name": "changeGovernance",
      "outputs": [],
      "stateMutability": "nonpayable",
      "type": "function"
    },
    {
      "inputs": [],
      "name": "decimals",
      "outputs": [
        {
          "internalType": "uint8",
          "name": "",
          "type": "uint8"
        }
      ],
      "stateMutability": "view",
      "type": "function"
    },
    {
      "inputs": [
        {
          "internalType": "address",
          "name": "spender",
          "type": "address"
        },
        {
          "internalType": "uint256",
          "name": "subtractedValue",
          "type": "uint256"
        }
      ],
      "name": "decreaseAllowance",
      "outputs": [
        {
          "internalType": "bool",
          "name": "",
          "type": "bool"
        }
      ],
      "stateMutability": "nonpayable",
      "type": "function"
    },
    {
      "inputs": [
        {
          "components": [
            {
              "internalType": "address",
              "name": "to",
              "type": "address"
            },
            {
              "internalType": "uint256",
              "name": "amount",
              "type": "uint256"
            },
            {
              "internalType": "uint256",
              "name": "startTimestamp",
              "type": "uint256"
            },
            {
              "internalType": "uint256",
              "name": "cliffPeriod",
              "type": "uint256"
            },
            {
              "internalType": "uint256",
              "name": "durationPeriod",
              "type": "uint256"
            }
          ],
          "internalType": "struct Libra.Recipient",
          "name": "recipient",
          "type": "tuple"
        }
      ],
      "name": "deployNewVestingContract",
      "outputs": [
        {
          "internalType": "address",
          "name": "",
          "type": "address"
        }
      ],
      "stateMutability": "nonpayable",
      "type": "function"
    },
    {
      "inputs": [],
      "name": "governance",
      "outputs": [
        {
          "internalType": "address",
          "name": "",
          "type": "address"
        }
      ],
      "stateMutability": "view",
      "type": "function"
    },
    {
      "inputs": [
        {
          "internalType": "address",
          "name": "spender",
          "type": "address"
        },
        {
          "internalType": "uint256",
          "name": "addedValue",
          "type": "uint256"
        }
      ],
      "name": "increaseAllowance",
      "outputs": [
        {
          "internalType": "bool",
          "name": "",
          "type": "bool"
        }
      ],
      "stateMutability": "nonpayable",
      "type": "function"
    },
    {
      "inputs": [],
      "name": "name",
      "outputs": [
        {
          "internalType": "string",
          "name": "",
          "type": "string"
        }
      ],
      "stateMutability": "view",
      "type": "function"
    },
    {
      "inputs": [],
      "name": "pendingGovernance",
      "outputs": [
        {
          "internalType": "address",
          "name": "",
          "type": "address"
        }
      ],
      "stateMutability": "view",
      "type": "function"
    },
    {
      "inputs": [
        {
          "internalType": "contract IERC20",
          "name": "token",
          "type": "address"
        },
        {
          "internalType": "address payable",
          "name": "to",
          "type": "address"
        },
        {
          "internalType": "uint256",
          "name": "balance",
          "type": "uint256"
        }
      ],
      "name": "rescueTokens",
      "outputs": [],
      "stateMutability": "nonpayable",
      "type": "function"
    },
    {
      "inputs": [],
      "name": "symbol",
      "outputs": [
        {
          "internalType": "string",
          "name": "",
          "type": "string"
        }
      ],
      "stateMutability": "view",
      "type": "function"
    },
    {
      "inputs": [],
      "name": "totalSupply",
      "outputs": [
        {
          "internalType": "uint256",
          "name": "",
          "type": "uint256"
        }
      ],
      "stateMutability": "view",
      "type": "function"
    },
    {
      "inputs": [
        {
          "internalType": "address",
          "name": "recipient",
          "type": "address"
        },
        {
          "internalType": "uint256",
          "name": "amount",
          "type": "uint256"
        }
      ],
      "name": "transfer",
      "outputs": [
        {
          "internalType": "bool",
          "name": "",
          "type": "bool"
        }
      ],
      "stateMutability": "nonpayable",
      "type": "function"
    },
    {
      "inputs": [
        {
          "internalType": "address",
          "name": "sender",
          "type": "address"
        },
        {
          "internalType": "address",
          "name": "recipient",
          "type": "address"
        },
        {
          "internalType": "uint256",
          "name": "amount",
          "type": "uint256"
        }
      ],
      "name": "transferFrom",
      "outputs": [
        {
          "internalType": "bool",
          "name": "",
          "type": "bool"
        }
      ],
      "stateMutability": "nonpayable",
      "type": "function"
    },
    {
      "inputs": [],
      "name": "vestingContractTarget",
      "outputs": [
        {
          "internalType": "address",
          "name": "",
          "type": "address"
        }
      ],
      "stateMutability": "view",
      "type": "function"
    }
  ],
  "transactionHash": "0x3cf190cc721b37e5fed139556064ddc46d096c807e186ea19f53853f8dbb5ec8",
  "args": [
    "0x0782a1e303F8D8DdaE98ffdf56D8142E8B19217f",
    "0x1a72faBA1ec2dC20c0b213C49B91B1361A518991"
  ],
  "numDeployments": 1,
  "solcInputHash": "e66dcf9bc4b876d6ff1b7db48cbd39ff",
  "bytecode": "0x60a06040523480156200001157600080fd5b5060405162001f3538038062001f35833981016040819052620000349162000397565b604051806040016040528060098152602001684c696272612044414f60b81b815250604051806040016040528060038152602001622624a160e91b81525081600390805190602001906200008a929190620002d4565b508051620000a0906004906020840190620002d4565b5050506001600160a01b038216620000ff5760405162461bcd60e51b815260206004820152601f60248201527f53444c3a20676f7665726e616e63652063616e6e6f7420626520656d7074790060448201526064015b60405180910390fd5b6001600160a01b0381166200016c5760405162461bcd60e51b815260206004820152602c60248201527f4c49423a2076657374696e6720636f6e7472616374207461726765742063616e60448201526b6e6f7420626520656d70747960a01b6064820152608401620000f6565b606081901b6001600160601b031916608052600580546001600160a01b0319166001600160a01b038416908117909155620001b3906a52b7d2dcc80cd2e4000000620001ef565b6040516001600160a01b038316907f24a8c4807b324a269a51827c3446b8ac1cc13810d7d0c0ca1efafabddd7b621990600090a2505062000433565b6001600160a01b038216620002475760405162461bcd60e51b815260206004820152601f60248201527f45524332303a206d696e7420746f20746865207a65726f2061646472657373006044820152606401620000f6565b80600260008282546200025b9190620003cf565b90915550506001600160a01b038216600090815260208190526040812080548392906200028a908490620003cf565b90915550506040518181526001600160a01b038316906000907fddf252ad1be2c89b69c2b068fc378daa952ba7f163c4a11628f55a4df523b3ef9060200160405180910390a35050565b828054620002e290620003f6565b90600052602060002090601f01602090048101928262000306576000855562000351565b82601f106200032157805160ff191683800117855562000351565b8280016001018555821562000351579182015b828111156200035157825182559160200191906001019062000334565b506200035f92915062000363565b5090565b5b808211156200035f576000815560010162000364565b80516001600160a01b03811681146200039257600080fd5b919050565b60008060408385031215620003ab57600080fd5b620003b6836200037a565b9150620003c6602084016200037a565b90509250929050565b60008219821115620003f157634e487b7160e01b600052601160045260246000fd5b500190565b600181811c908216806200040b57607f821691505b602082108114156200042d57634e487b7160e01b600052602260045260246000fd5b50919050565b60805160601c611adc62000459600039600081816102e10152610a850152611adc6000f3fe608060405234801561001057600080fd5b50600436106101515760003560e01c806370a08231116100cd578063c643b57711610081578063d5dbfbd711610066578063d5dbfbd7146102dc578063dd62ed3e14610303578063f39c38a01461034957600080fd5b8063c643b577146102b6578063cea9d26f146102c957600080fd5b806399572d6f116100b257806399572d6f1461027d578063a457c2d714610290578063a9059cbb146102a357600080fd5b806370a082311461023f57806395d89b411461027557600080fd5b806323b872dd1161012457806332cb6b0c1161010957806332cb6b0c146101d557806339509351146101e75780635aa6e675146101fa57600080fd5b806323b872dd146101b3578063313ce567146101c657600080fd5b806306fdde0314610156578063095ea7b31461017457806318160ddd14610197578063238efcbc146101a9575b600080fd5b61015e610369565b60405161016b9190611971565b60405180910390f35b61018761018236600461184e565b6103fb565b604051901515815260200161016b565b6002545b60405190815260200161016b565b6101b1610411565b005b6101876101c136600461180d565b61058f565b6040516012815260200161016b565b61019b6a52b7d2dcc80cd2e400000081565b6101876101f536600461184e565b61065d565b60055461021a9073ffffffffffffffffffffffffffffffffffffffff1681565b60405173ffffffffffffffffffffffffffffffffffffffff909116815260200161016b565b61019b61024d3660046117b7565b73ffffffffffffffffffffffffffffffffffffffff1660009081526020819052604090205490565b61015e6106a6565b6101b161028b3660046117b7565b6106b5565b61018761029e36600461184e565b610893565b6101876102b136600461184e565b610951565b61021a6102c436600461189c565b61095e565b6101b16102d736600461180d565b610bc5565b61021a7f000000000000000000000000000000000000000000000000000000000000000081565b61019b6103113660046117d4565b73ffffffffffffffffffffffffffffffffffffffff918216600090815260016020908152604080832093909416825291909152205490565b60065461021a9073ffffffffffffffffffffffffffffffffffffffff1681565b60606003805461037890611a2d565b80601f01602080910402602001604051908101604052809291908181526020018280546103a490611a2d565b80156103f15780601f106103c6576101008083540402835291602001916103f1565b820191906000526020600020905b8154815290600101906020018083116103d457829003601f168201915b5050505050905090565b6000610408338484610f3a565b50600192915050565b60065473ffffffffffffffffffffffffffffffffffffffff16806104a25760405162461bcd60e51b815260206004820152602560248201527f6368616e6765476f7665726e616e6365206d7573742062652063616c6c65642060448201527f666972737400000000000000000000000000000000000000000000000000000060648201526084015b60405180910390fd5b3373ffffffffffffffffffffffffffffffffffffffff82161461052d5760405162461bcd60e51b815260206004820152602b60248201527f6f6e6c792070656e64696e67476f7665726e616e63652063616e20616363657060448201527f74207468697320726f6c650000000000000000000000000000000000000000006064820152608401610499565b600680547fffffffffffffffffffffffff000000000000000000000000000000000000000090811690915560058054339216821790556040517f24a8c4807b324a269a51827c3446b8ac1cc13810d7d0c0ca1efafabddd7b621990600090a250565b600061059c8484846110b9565b73ffffffffffffffffffffffffffffffffffffffff84166000908152600160209081526040808320338452909152902054828110156106435760405162461bcd60e51b815260206004820152602860248201527f45524332303a207472616e7366657220616d6f756e742065786365656473206160448201527f6c6c6f77616e63650000000000000000000000000000000000000000000000006064820152608401610499565b6106508533858403610f3a565b60019150505b9392505050565b33600081815260016020908152604080832073ffffffffffffffffffffffffffffffffffffffff8716845290915281205490916104089185906106a19086906119c2565b610f3a565b60606004805461037890611a2d565b60055473ffffffffffffffffffffffffffffffffffffffff163373ffffffffffffffffffffffffffffffffffffffff16146107585760405162461bcd60e51b815260206004820152602760248201527f6f6e6c7920676f7665726e616e63652063616e20706572666f726d207468697360448201527f20616374696f6e000000000000000000000000000000000000000000000000006064820152608401610499565b60055473ffffffffffffffffffffffffffffffffffffffff828116911614156107e95760405162461bcd60e51b815260206004820152602d60248201527f676f7665726e616e6365206d75737420626520646966666572656e742066726f60448201527f6d2063757272656e74206f6e65000000000000000000000000000000000000006064820152608401610499565b73ffffffffffffffffffffffffffffffffffffffff811661084c5760405162461bcd60e51b815260206004820152601a60248201527f676f7665726e616e63652063616e6e6f7420626520656d7074790000000000006044820152606401610499565b600680547fffffffffffffffffffffffff00000000000000000000000000000000000000001673ffffffffffffffffffffffffffffffffffffffff92909216919091179055565b33600090815260016020908152604080832073ffffffffffffffffffffffffffffffffffffffff861684529091528120548281101561093a5760405162461bcd60e51b815260206004820152602560248201527f45524332303a2064656372656173656420616c6c6f77616e63652062656c6f7760448201527f207a65726f0000000000000000000000000000000000000000000000000000006064820152608401610499565b6109473385858403610f3a565b5060019392505050565b60006104083384846110b9565b60055460009073ffffffffffffffffffffffffffffffffffffffff163373ffffffffffffffffffffffffffffffffffffffff1614610a045760405162461bcd60e51b815260206004820152602760248201527f6f6e6c7920676f7665726e616e63652063616e20706572666f726d207468697360448201527f20616374696f6e000000000000000000000000000000000000000000000000006064820152608401610499565b6000826080015111610a7e5760405162461bcd60e51b815260206004820152602560248201527f4c49423a206475726174696f6e20666f722076657374696e672063616e6e6f7460448201527f20626520300000000000000000000000000000000000000000000000000000006064820152608401610499565b6000610aa97f000000000000000000000000000000000000000000000000000000000000000061131e565b83516040808601516060870151608088015192517fd13f90b400000000000000000000000000000000000000000000000000000000815230600482015273ffffffffffffffffffffffffffffffffffffffff948516602482015260448101929092526064820152608481019190915291925082169063d13f90b49060a401600060405180830381600087803b158015610b4157600080fd5b505af1158015610b55573d6000803e3d6000fd5b5050506020840151610b6d91503090339084906113e1565b825160405173ffffffffffffffffffffffffffffffffffffffff8381168252909116907f739fe22b8edefd6ce1fe32460f9cd54bf8e66fc7447f4c8a8131ce078a1988af9060200160405180910390a290505b919050565b60055473ffffffffffffffffffffffffffffffffffffffff163373ffffffffffffffffffffffffffffffffffffffff1614610c685760405162461bcd60e51b815260206004820152602760248201527f6f6e6c7920676f7665726e616e63652063616e20706572666f726d207468697360448201527f20616374696f6e000000000000000000000000000000000000000000000000006064820152608401610499565b73ffffffffffffffffffffffffffffffffffffffff8216610ccb5760405162461bcd60e51b815260206004820152601660248201527f4c49423a20696e76616c696420726563697069656e74000000000000000000006044820152606401610499565b73ffffffffffffffffffffffffffffffffffffffff8316610e0757478115610cfc57610cf781836114bd565b610cfe565b805b915060008211610d505760405162461bcd60e51b815260206004820152601960248201527f4c49423a20747279696e6720746f2073656e64203020455448000000000000006044820152606401610499565b60008373ffffffffffffffffffffffffffffffffffffffff168360405160006040518083038185875af1925050503d8060008114610daa576040519150601f19603f3d011682016040523d82523d6000602084013e610daf565b606091505b5050905080610e005760405162461bcd60e51b815260206004820152601860248201527f4c49423a20455448207472616e73666572206661696c656400000000000000006044820152606401610499565b5050505050565b6040517f70a0823100000000000000000000000000000000000000000000000000000000815230600482015260009073ffffffffffffffffffffffffffffffffffffffff8516906370a082319060240160206040518083038186803b158015610e6f57600080fd5b505afa158015610e83573d6000803e3d6000fd5b505050506040513d601f19601f82011682018060405250810190610ea7919061193c565b90508115610ebe57610eb981836114bd565b610ec0565b805b915060008211610f125760405162461bcd60e51b815260206004820152601d60248201527f4c49423a20747279696e6720746f2073656e6420302062616c616e63650000006044820152606401610499565b610f3373ffffffffffffffffffffffffffffffffffffffff851684846114d3565b505b505050565b73ffffffffffffffffffffffffffffffffffffffff8316610fc25760405162461bcd60e51b8152602060048201526024808201527f45524332303a20617070726f76652066726f6d20746865207a65726f2061646460448201527f72657373000000000000000000000000000000000000000000000000000000006064820152608401610499565b73ffffffffffffffffffffffffffffffffffffffff821661104b5760405162461bcd60e51b815260206004820152602260248201527f45524332303a20617070726f766520746f20746865207a65726f20616464726560448201527f73730000000000000000000000000000000000000000000000000000000000006064820152608401610499565b73ffffffffffffffffffffffffffffffffffffffff83811660008181526001602090815260408083209487168084529482529182902085905590518481527f8c5be1e5ebec7d5bd14f71427d1e84f3dd0314c0f7b2291e5b200ac8c7c3b925910160405180910390a3505050565b73ffffffffffffffffffffffffffffffffffffffff83166111425760405162461bcd60e51b815260206004820152602560248201527f45524332303a207472616e736665722066726f6d20746865207a65726f20616460448201527f64726573730000000000000000000000000000000000000000000000000000006064820152608401610499565b73ffffffffffffffffffffffffffffffffffffffff82166111cb5760405162461bcd60e51b815260206004820152602360248201527f45524332303a207472616e7366657220746f20746865207a65726f206164647260448201527f65737300000000000000000000000000000000000000000000000000000000006064820152608401610499565b73ffffffffffffffffffffffffffffffffffffffff8316600090815260208190526040902054818110156112675760405162461bcd60e51b815260206004820152602660248201527f45524332303a207472616e7366657220616d6f756e742065786365656473206260448201527f616c616e636500000000000000000000000000000000000000000000000000006064820152608401610499565b73ffffffffffffffffffffffffffffffffffffffff8085166000908152602081905260408082208585039055918516815290812080548492906112ab9084906119c2565b925050819055508273ffffffffffffffffffffffffffffffffffffffff168473ffffffffffffffffffffffffffffffffffffffff167fddf252ad1be2c89b69c2b068fc378daa952ba7f163c4a11628f55a4df523b3ef8460405161131191815260200190565b60405180910390a3610f33565b60006040517f3d602d80600a3d3981f3363d3d373d3d3d363d7300000000000000000000000081528260601b60148201527f5af43d82803e903d91602b57fd5bf3000000000000000000000000000000000060288201526037816000f091505073ffffffffffffffffffffffffffffffffffffffff8116610bc05760405162461bcd60e51b815260206004820152601660248201527f455243313136373a20637265617465206661696c6564000000000000000000006044820152606401610499565b60405173ffffffffffffffffffffffffffffffffffffffff80851660248301528316604482015260648101829052610f339085907f23b872dd00000000000000000000000000000000000000000000000000000000906084015b604080517fffffffffffffffffffffffffffffffffffffffffffffffffffffffffffffffe08184030181529190526020810180517bffffffffffffffffffffffffffffffffffffffffffffffffffffffff167fffffffff0000000000000000000000000000000000000000000000000000000090931692909217909152611529565b60008183106114cc5781610656565b5090919050565b60405173ffffffffffffffffffffffffffffffffffffffff8316602482015260448101829052610f359084907fa9059cbb000000000000000000000000000000000000000000000000000000009060640161143b565b600061158b826040518060400160405280602081526020017f5361666545524332303a206c6f772d6c6576656c2063616c6c206661696c65648152508573ffffffffffffffffffffffffffffffffffffffff1661161b9092919063ffffffff16565b805190915015610f3557808060200190518101906115a9919061187a565b610f355760405162461bcd60e51b815260206004820152602a60248201527f5361666545524332303a204552433230206f7065726174696f6e20646964206e60448201527f6f742073756363656564000000000000000000000000000000000000000000006064820152608401610499565b606061162a8484600085611632565b949350505050565b6060824710156116aa5760405162461bcd60e51b815260206004820152602660248201527f416464726573733a20696e73756666696369656e742062616c616e636520666f60448201527f722063616c6c00000000000000000000000000000000000000000000000000006064820152608401610499565b843b6116f85760405162461bcd60e51b815260206004820152601d60248201527f416464726573733a2063616c6c20746f206e6f6e2d636f6e74726163740000006044820152606401610499565b6000808673ffffffffffffffffffffffffffffffffffffffff1685876040516117219190611955565b60006040518083038185875af1925050503d806000811461175e576040519150601f19603f3d011682016040523d82523d6000602084013e611763565b606091505b509150915061177382828661177e565b979650505050505050565b6060831561178d575081610656565b82511561179d5782518084602001fd5b8160405162461bcd60e51b81526004016104999190611971565b6000602082840312156117c957600080fd5b813561065681611a81565b600080604083850312156117e757600080fd5b82356117f281611a81565b9150602083013561180281611a81565b809150509250929050565b60008060006060848603121561182257600080fd5b833561182d81611a81565b9250602084013561183d81611a81565b929592945050506040919091013590565b6000806040838503121561186157600080fd5b823561186c81611a81565b946020939093013593505050565b60006020828403121561188c57600080fd5b8151801515811461065657600080fd5b600060a082840312156118ae57600080fd5b60405160a0810181811067ffffffffffffffff821117156118f8577f4e487b7100000000000000000000000000000000000000000000000000000000600052604160045260246000fd5b604052823561190681611a81565b80825250602083013560208201526040830135604082015260608301356060820152608083013560808201528091505092915050565b60006020828403121561194e57600080fd5b5051919050565b60008251611967818460208701611a01565b9190910192915050565b6020815260008251806020840152611990816040850160208701611a01565b601f017fffffffffffffffffffffffffffffffffffffffffffffffffffffffffffffffe0169190910160400192915050565b600082198211156119fc577f4e487b7100000000000000000000000000000000000000000000000000000000600052601160045260246000fd5b500190565b60005b83811015611a1c578181015183820152602001611a04565b83811115610f335750506000910152565b600181811c90821680611a4157607f821691505b60208210811415611a7b577f4e487b7100000000000000000000000000000000000000000000000000000000600052602260045260246000fd5b50919050565b73ffffffffffffffffffffffffffffffffffffffff81168114611aa357600080fd5b5056fea264697066735822122091430e6741ccf97e3cedc299cfc0cf36768ece981f1214ed7bacf7603867ae1d64736f6c63430008060033",
  "devdoc": {
    "kind": "dev",
    "methods": {
      "acceptGovernance()": {
        "details": "`changeGovernance` must be called first to set `pendingGovernance`"
      },
      "allowance(address,address)": {
        "details": "See {IERC20-allowance}."
      },
      "approve(address,uint256)": {
        "details": "See {IERC20-approve}. Requirements: - `spender` cannot be the zero address."
      },
      "balanceOf(address)": {
        "details": "See {IERC20-balanceOf}."
      },
      "changeGovernance(address)": {
        "details": "Only governance can call this function. The new governance must call `acceptGovernance` after.",
        "params": {
          "newGovernance": "new address to become the governance"
        }
      },
      "constructor": {
        "params": {
          "governance_": "address of the governance who will own this contract by the governance.",
          "vestingContractTarget_": "logic contract of Vesting.sol to use for cloning"
        }
      },
      "decimals()": {
        "details": "Returns the number of decimals used to get its user representation. For example, if `decimals` equals `2`, a balance of `505` tokens should be displayed to a user as `5,05` (`505 / 10 ** 2`). Tokens usually opt for a value of 18, imitating the relationship between Ether and Wei. This is the value {ERC20} uses, unless this function is overridden; NOTE: This information is only used for _display_ purposes: it in no way affects any of the arithmetic of the contract, including {IERC20-balanceOf} and {IERC20-transfer}."
      },
      "decreaseAllowance(address,uint256)": {
        "details": "Atomically decreases the allowance granted to `spender` by the caller. This is an alternative to {approve} that can be used as a mitigation for problems described in {IERC20-approve}. Emits an {Approval} event indicating the updated allowance. Requirements: - `spender` cannot be the zero address. - `spender` must have allowance for the caller of at least `subtractedValue`."
      },
      "deployNewVestingContract((address,uint256,uint256,uint256,uint256))": {
        "params": {
          "recipient": "Recipient of the token through the vesting schedule."
        }
      },
      "increaseAllowance(address,uint256)": {
        "details": "Atomically increases the allowance granted to `spender` by the caller. This is an alternative to {approve} that can be used as a mitigation for problems described in {IERC20-approve}. Emits an {Approval} event indicating the updated allowance. Requirements: - `spender` cannot be the zero address."
      },
      "name()": {
        "details": "Returns the name of the token."
      },
      "rescueTokens(address,address,uint256)": {
        "details": "Method to claim junk and accidentally sent tokens. This will be only used to rescue tokens that are mistakenly sent by users to this contract.",
        "params": {
          "balance": "Amount to transfer out. Set to 0 to select all available amount.",
          "to": "Destination address that will receive the tokens.",
          "token": "Address of the ERC20 token to transfer out. Set to address(0) to transfer ether instead."
        }
      },
      "symbol()": {
        "details": "Returns the symbol of the token, usually a shorter version of the name."
      },
      "totalSupply()": {
        "details": "See {IERC20-totalSupply}."
      },
      "transfer(address,uint256)": {
        "details": "See {IERC20-transfer}. Requirements: - `recipient` cannot be the zero address. - the caller must have a balance of at least `amount`."
      },
      "transferFrom(address,address,uint256)": {
        "details": "See {IERC20-transferFrom}. Emits an {Approval} event indicating the updated allowance. This is not required by the EIP. See the note at the beginning of {ERC20}. Requirements: - `sender` and `recipient` cannot be the zero address. - `sender` must have a balance of at least `amount`. - the caller must have allowance for ``sender``'s tokens of at least `amount`."
      }
    },
    "title": "Saddle DAO token",
    "version": 1
  },
  "userdoc": {
    "kind": "user",
    "methods": {
      "acceptGovernance()": {
        "notice": "Accept the new role of governance"
      },
      "changeGovernance(address)": {
        "notice": "Changes governance of this contract"
      },
      "constructor": {
        "notice": "Initializes SDL token with specified governance address and recipients. For vesting durations and amounts, please refer to our documentation on token distribution schedule."
      },
      "deployNewVestingContract((address,uint256,uint256,uint256,uint256))": {
        "notice": "Deploys a clone of the vesting contract for the given recipient. Details about vesting and token release schedule can be found on https://docs.saddle.finance"
      },
      "rescueTokens(address,address,uint256)": {
        "notice": "Transfers any stuck tokens or ether out to the given destination."
      }
    },
    "notice": "A token that is deployed with fixed amount and appropriate vesting contracts. Transfer is blocked for a period of time until the governance can toggle the transferability.",
    "version": 1
  },
  "storageLayout": {
    "storage": [
      {
        "astId": 199,
        "contract": "contracts/Libra.sol:Libra",
        "label": "_balances",
        "offset": 0,
        "slot": "0",
        "type": "t_mapping(t_address,t_uint256)"
      },
      {
        "astId": 205,
        "contract": "contracts/Libra.sol:Libra",
        "label": "_allowances",
        "offset": 0,
        "slot": "1",
        "type": "t_mapping(t_address,t_mapping(t_address,t_uint256))"
      },
      {
        "astId": 207,
        "contract": "contracts/Libra.sol:Libra",
        "label": "_totalSupply",
        "offset": 0,
        "slot": "2",
        "type": "t_uint256"
      },
      {
        "astId": 209,
        "contract": "contracts/Libra.sol:Libra",
        "label": "_name",
        "offset": 0,
        "slot": "3",
        "type": "t_string_storage"
      },
      {
        "astId": 211,
        "contract": "contracts/Libra.sol:Libra",
        "label": "_symbol",
        "offset": 0,
        "slot": "4",
        "type": "t_string_storage"
      },
      {
        "astId": 1811,
        "contract": "contracts/Libra.sol:Libra",
        "label": "governance",
        "offset": 0,
        "slot": "5",
        "type": "t_address"
      },
      {
        "astId": 1813,
        "contract": "contracts/Libra.sol:Libra",
        "label": "pendingGovernance",
        "offset": 0,
        "slot": "6",
        "type": "t_address"
      }
    ],
    "types": {
      "t_address": {
        "encoding": "inplace",
        "label": "address",
        "numberOfBytes": "20"
      },
      "t_mapping(t_address,t_mapping(t_address,t_uint256))": {
        "encoding": "mapping",
        "key": "t_address",
        "label": "mapping(address => mapping(address => uint256))",
        "numberOfBytes": "32",
        "value": "t_mapping(t_address,t_uint256)"
      },
      "t_mapping(t_address,t_uint256)": {
        "encoding": "mapping",
        "key": "t_address",
        "label": "mapping(address => uint256)",
        "numberOfBytes": "32",
        "value": "t_uint256"
      },
      "t_string_storage": {
        "encoding": "bytes",
        "label": "string",
        "numberOfBytes": "32"
      },
      "t_uint256": {
        "encoding": "inplace",
        "label": "uint256",
        "numberOfBytes": "32"
      }
    }
  }
}